{
  "address": "0x00F97A0f0FB628fe638a0BD216Ef0EE35a1cA7C5",
  "abi": [
    {
      "inputs": [],
      "stateMutability": "nonpayable",
      "type": "constructor"
    },
    {
      "anonymous": false,
      "inputs": [
        {
          "indexed": true,
          "internalType": "address",
          "name": "account",
          "type": "address"
        },
        {
          "indexed": true,
          "internalType": "address",
          "name": "operator",
          "type": "address"
        },
        {
          "indexed": false,
          "internalType": "bool",
          "name": "approved",
          "type": "bool"
        }
      ],
      "name": "ApprovalForAll",
      "type": "event"
    },
    {
      "anonymous": false,
      "inputs": [
        {
          "indexed": false,
          "internalType": "address",
          "name": "account",
          "type": "address"
        }
      ],
      "name": "Paused",
      "type": "event"
    },
    {
      "anonymous": false,
      "inputs": [
        {
          "indexed": true,
          "internalType": "bytes32",
          "name": "role",
          "type": "bytes32"
        },
        {
          "indexed": true,
          "internalType": "bytes32",
          "name": "previousAdminRole",
          "type": "bytes32"
        },
        {
          "indexed": true,
          "internalType": "bytes32",
          "name": "newAdminRole",
          "type": "bytes32"
        }
      ],
      "name": "RoleAdminChanged",
      "type": "event"
    },
    {
      "anonymous": false,
      "inputs": [
        {
          "indexed": true,
          "internalType": "bytes32",
          "name": "role",
          "type": "bytes32"
        },
        {
          "indexed": true,
          "internalType": "address",
          "name": "account",
          "type": "address"
        },
        {
          "indexed": true,
          "internalType": "address",
          "name": "sender",
          "type": "address"
        }
      ],
      "name": "RoleGranted",
      "type": "event"
    },
    {
      "anonymous": false,
      "inputs": [
        {
          "indexed": true,
          "internalType": "bytes32",
          "name": "role",
          "type": "bytes32"
        },
        {
          "indexed": true,
          "internalType": "address",
          "name": "account",
          "type": "address"
        },
        {
          "indexed": true,
          "internalType": "address",
          "name": "sender",
          "type": "address"
        }
      ],
      "name": "RoleRevoked",
      "type": "event"
    },
    {
      "anonymous": false,
      "inputs": [
        {
          "indexed": true,
          "internalType": "address",
          "name": "operator",
          "type": "address"
        },
        {
          "indexed": true,
          "internalType": "address",
          "name": "from",
          "type": "address"
        },
        {
          "indexed": true,
          "internalType": "address",
          "name": "to",
          "type": "address"
        },
        {
          "indexed": false,
          "internalType": "uint256[]",
          "name": "ids",
          "type": "uint256[]"
        },
        {
          "indexed": false,
          "internalType": "uint256[]",
          "name": "values",
          "type": "uint256[]"
        }
      ],
      "name": "TransferBatch",
      "type": "event"
    },
    {
      "anonymous": false,
      "inputs": [
        {
          "indexed": true,
          "internalType": "address",
          "name": "operator",
          "type": "address"
        },
        {
          "indexed": true,
          "internalType": "address",
          "name": "from",
          "type": "address"
        },
        {
          "indexed": true,
          "internalType": "address",
          "name": "to",
          "type": "address"
        },
        {
          "indexed": false,
          "internalType": "uint256",
          "name": "id",
          "type": "uint256"
        },
        {
          "indexed": false,
          "internalType": "uint256",
          "name": "value",
          "type": "uint256"
        }
      ],
      "name": "TransferSingle",
      "type": "event"
    },
    {
      "anonymous": false,
      "inputs": [
        {
          "indexed": false,
          "internalType": "string",
          "name": "value",
          "type": "string"
        },
        {
          "indexed": true,
          "internalType": "uint256",
          "name": "id",
          "type": "uint256"
        }
      ],
      "name": "URI",
      "type": "event"
    },
    {
      "anonymous": false,
      "inputs": [
        {
          "indexed": false,
          "internalType": "address",
          "name": "account",
          "type": "address"
        }
      ],
      "name": "Unpaused",
      "type": "event"
    },
    {
      "inputs": [],
      "name": "DEFAULT_ADMIN_ROLE",
      "outputs": [
        {
          "internalType": "bytes32",
          "name": "",
          "type": "bytes32"
        }
      ],
      "stateMutability": "view",
      "type": "function"
    },
    {
      "inputs": [],
      "name": "MINTER_ROLE",
      "outputs": [
        {
          "internalType": "bytes32",
          "name": "",
          "type": "bytes32"
        }
      ],
      "stateMutability": "view",
      "type": "function"
    },
    {
      "inputs": [],
      "name": "PAUSER_ROLE",
      "outputs": [
        {
          "internalType": "bytes32",
          "name": "",
          "type": "bytes32"
        }
      ],
      "stateMutability": "view",
      "type": "function"
    },
    {
      "inputs": [
        {
          "internalType": "address",
          "name": "account",
          "type": "address"
        },
        {
          "internalType": "uint256",
          "name": "id",
          "type": "uint256"
        }
      ],
      "name": "balanceOf",
      "outputs": [
        {
          "internalType": "uint256",
          "name": "",
          "type": "uint256"
        }
      ],
      "stateMutability": "view",
      "type": "function"
    },
    {
      "inputs": [
        {
          "internalType": "address[]",
          "name": "accounts",
          "type": "address[]"
        },
        {
          "internalType": "uint256[]",
          "name": "ids",
          "type": "uint256[]"
        }
      ],
      "name": "balanceOfBatch",
      "outputs": [
        {
          "internalType": "uint256[]",
          "name": "",
          "type": "uint256[]"
        }
      ],
      "stateMutability": "view",
      "type": "function"
    },
    {
      "inputs": [
        {
          "internalType": "address",
          "name": "account",
          "type": "address"
        },
        {
          "internalType": "uint256",
          "name": "id",
          "type": "uint256"
        },
        {
          "internalType": "uint256",
          "name": "value",
          "type": "uint256"
        }
      ],
      "name": "burn",
      "outputs": [],
      "stateMutability": "nonpayable",
      "type": "function"
    },
    {
      "inputs": [
        {
          "internalType": "address",
          "name": "account",
          "type": "address"
        },
        {
          "internalType": "uint256[]",
          "name": "ids",
          "type": "uint256[]"
        },
        {
          "internalType": "uint256[]",
          "name": "values",
          "type": "uint256[]"
        }
      ],
      "name": "burnBatch",
      "outputs": [],
      "stateMutability": "nonpayable",
      "type": "function"
    },
    {
      "inputs": [],
      "name": "contractLevelURI",
      "outputs": [
        {
          "internalType": "string",
          "name": "",
          "type": "string"
        }
      ],
      "stateMutability": "view",
      "type": "function"
    },
    {
      "inputs": [],
      "name": "contractURI",
      "outputs": [
        {
          "internalType": "string",
          "name": "",
          "type": "string"
        }
      ],
      "stateMutability": "view",
      "type": "function"
    },
    {
      "inputs": [
        {
          "internalType": "bytes32",
          "name": "role",
          "type": "bytes32"
        }
      ],
      "name": "getRoleAdmin",
      "outputs": [
        {
          "internalType": "bytes32",
          "name": "",
          "type": "bytes32"
        }
      ],
      "stateMutability": "view",
      "type": "function"
    },
    {
      "inputs": [
        {
          "internalType": "bytes32",
          "name": "role",
          "type": "bytes32"
        },
        {
          "internalType": "uint256",
          "name": "index",
          "type": "uint256"
        }
      ],
      "name": "getRoleMember",
      "outputs": [
        {
          "internalType": "address",
          "name": "",
          "type": "address"
        }
      ],
      "stateMutability": "view",
      "type": "function"
    },
    {
      "inputs": [
        {
          "internalType": "bytes32",
          "name": "role",
          "type": "bytes32"
        }
      ],
      "name": "getRoleMemberCount",
      "outputs": [
        {
          "internalType": "uint256",
          "name": "",
          "type": "uint256"
        }
      ],
      "stateMutability": "view",
      "type": "function"
    },
    {
      "inputs": [
        {
          "internalType": "bytes32",
          "name": "role",
          "type": "bytes32"
        },
        {
          "internalType": "address",
          "name": "account",
          "type": "address"
        }
      ],
      "name": "grantRole",
      "outputs": [],
      "stateMutability": "nonpayable",
      "type": "function"
    },
    {
      "inputs": [
        {
          "internalType": "bytes32",
          "name": "role",
          "type": "bytes32"
        },
        {
          "internalType": "address",
          "name": "account",
          "type": "address"
        }
      ],
      "name": "hasRole",
      "outputs": [
        {
          "internalType": "bool",
          "name": "",
          "type": "bool"
        }
      ],
      "stateMutability": "view",
      "type": "function"
    },
    {
      "inputs": [
        {
          "internalType": "address",
          "name": "account",
          "type": "address"
        },
        {
          "internalType": "address",
          "name": "operator",
          "type": "address"
        }
      ],
      "name": "isApprovedForAll",
      "outputs": [
        {
          "internalType": "bool",
          "name": "",
          "type": "bool"
        }
      ],
      "stateMutability": "view",
      "type": "function"
    },
    {
      "inputs": [
        {
          "internalType": "address",
          "name": "to",
          "type": "address"
        },
        {
          "internalType": "uint256",
          "name": "id",
          "type": "uint256"
        },
        {
          "internalType": "uint256",
          "name": "amount",
          "type": "uint256"
        },
        {
          "internalType": "bytes",
          "name": "data",
          "type": "bytes"
        }
      ],
      "name": "mint",
      "outputs": [],
      "stateMutability": "nonpayable",
      "type": "function"
    },
    {
      "inputs": [
        {
          "internalType": "address",
          "name": "to",
          "type": "address"
        },
        {
          "internalType": "uint256[]",
          "name": "ids",
          "type": "uint256[]"
        },
        {
          "internalType": "uint256[]",
          "name": "amounts",
          "type": "uint256[]"
        },
        {
          "internalType": "bytes",
          "name": "data",
          "type": "bytes"
        }
      ],
      "name": "mintBatch",
      "outputs": [],
      "stateMutability": "nonpayable",
      "type": "function"
    },
    {
      "inputs": [
        {
          "internalType": "address",
          "name": "account",
          "type": "address"
        },
        {
          "internalType": "string",
          "name": "tokenMetadataHash",
          "type": "string"
        }
      ],
      "name": "mintNFT",
      "outputs": [],
      "stateMutability": "nonpayable",
      "type": "function"
    },
    {
      "inputs": [],
      "name": "pause",
      "outputs": [],
      "stateMutability": "nonpayable",
      "type": "function"
    },
    {
      "inputs": [],
      "name": "paused",
      "outputs": [
        {
          "internalType": "bool",
          "name": "",
          "type": "bool"
        }
      ],
      "stateMutability": "view",
      "type": "function"
    },
    {
      "inputs": [
        {
          "internalType": "bytes32",
          "name": "role",
          "type": "bytes32"
        },
        {
          "internalType": "address",
          "name": "account",
          "type": "address"
        }
      ],
      "name": "renounceRole",
      "outputs": [],
      "stateMutability": "nonpayable",
      "type": "function"
    },
    {
      "inputs": [
        {
          "internalType": "bytes32",
          "name": "role",
          "type": "bytes32"
        },
        {
          "internalType": "address",
          "name": "account",
          "type": "address"
        }
      ],
      "name": "revokeRole",
      "outputs": [],
      "stateMutability": "nonpayable",
      "type": "function"
    },
    {
      "inputs": [
        {
          "internalType": "address",
          "name": "from",
          "type": "address"
        },
        {
          "internalType": "address",
          "name": "to",
          "type": "address"
        },
        {
          "internalType": "uint256[]",
          "name": "ids",
          "type": "uint256[]"
        },
        {
          "internalType": "uint256[]",
          "name": "amounts",
          "type": "uint256[]"
        },
        {
          "internalType": "bytes",
          "name": "data",
          "type": "bytes"
        }
      ],
      "name": "safeBatchTransferFrom",
      "outputs": [],
      "stateMutability": "nonpayable",
      "type": "function"
    },
    {
      "inputs": [
        {
          "internalType": "address",
          "name": "from",
          "type": "address"
        },
        {
          "internalType": "address",
          "name": "to",
          "type": "address"
        },
        {
          "internalType": "uint256",
          "name": "id",
          "type": "uint256"
        },
        {
          "internalType": "uint256",
          "name": "amount",
          "type": "uint256"
        },
        {
          "internalType": "bytes",
          "name": "data",
          "type": "bytes"
        }
      ],
      "name": "safeTransferFrom",
      "outputs": [],
      "stateMutability": "nonpayable",
      "type": "function"
    },
    {
      "inputs": [
        {
          "internalType": "address",
          "name": "operator",
          "type": "address"
        },
        {
          "internalType": "bool",
          "name": "approved",
          "type": "bool"
        }
      ],
      "name": "setApprovalForAll",
      "outputs": [],
      "stateMutability": "nonpayable",
      "type": "function"
    },
    {
      "inputs": [
        {
          "internalType": "bytes4",
          "name": "interfaceId",
          "type": "bytes4"
        }
      ],
      "name": "supportsInterface",
      "outputs": [
        {
          "internalType": "bool",
          "name": "",
          "type": "bool"
        }
      ],
      "stateMutability": "view",
      "type": "function"
    },
    {
      "inputs": [],
      "name": "tokenIdCount",
      "outputs": [
        {
          "internalType": "uint256",
          "name": "",
          "type": "uint256"
        }
      ],
      "stateMutability": "view",
      "type": "function"
    },
    {
      "inputs": [
        {
          "internalType": "uint256",
          "name": "",
          "type": "uint256"
        }
      ],
      "name": "tokens",
      "outputs": [
        {
          "internalType": "string",
          "name": "",
          "type": "string"
        }
      ],
      "stateMutability": "view",
      "type": "function"
    },
    {
      "inputs": [],
      "name": "unpause",
      "outputs": [],
      "stateMutability": "nonpayable",
      "type": "function"
    },
    {
      "inputs": [
        {
          "internalType": "uint256",
          "name": "id",
          "type": "uint256"
        }
      ],
      "name": "uri",
      "outputs": [
        {
          "internalType": "string",
          "name": "",
          "type": "string"
        }
      ],
      "stateMutability": "view",
      "type": "function"
    }
  ],
  "transactionHash": "0x17555b9a84d45714ca01179b4c9e6e4de0614fd9c175efd2434f2b8536beedb3",
  "args": [],
  "solcInputHash": "7a800b0be2254b29618a28b5b01bb06d",
  "bytecode": "0x60806040523480156200001157600080fd5b50604080516020810190915260008152806200002d81620000e8565b506005805460ff191690556200004e60006200004862000101565b62000105565b6200007d7f9f2df0fed2c77648de5860a4cc508cd0818c85b8b8a1ab4ceeef8d981c8956a66200004862000101565b620000ac7f65d7a28e3265b37a6474929f336521b332c1681b933f6cb9f3376673440d862a6200004862000101565b506000600755604080516060810190915260358082526200346b60208301398051620000e1916008916020909101906200028e565b5062000371565b8051620000fd9060049060208401906200028e565b5050565b3390565b6200011c82826200014860201b62000cf71760201c565b60008281526001602090815260409091206200014391839062000d0562000154821b17901c565b505050565b620000fd828262000174565b60006200016b836001600160a01b038416620001fe565b90505b92915050565b6200018082826200024d565b620000fd576000828152602081815260408083206001600160a01b03851684529091529020805460ff19166001179055620001ba62000101565b6001600160a01b0316816001600160a01b0316837f2f8788117e7eff1d82e926ec794901d17c78024a50270940304540a733656f0d60405160405180910390a45050565b60006200020c838362000276565b62000244575081546001818101845560008481526020808220909301849055845484825282860190935260409020919091556200016e565b5060006200016e565b6000918252602082815260408084206001600160a01b0393909316845291905290205460ff1690565b60009081526001919091016020526040902054151590565b8280546200029c9062000334565b90600052602060002090601f016020900481019282620002c057600085556200030b565b82601f10620002db57805160ff19168380011785556200030b565b828001600101855582156200030b579182015b828111156200030b578251825591602001919060010190620002ee565b50620003199291506200031d565b5090565b5b808211156200031957600081556001016200031e565b6002810460018216806200034957607f821691505b602082108114156200036b57634e487b7160e01b600052602260045260246000fd5b50919050565b6130ea80620003816000396000f3fe608060405234801561001057600080fd5b50600436106101d95760003560e01c80638456cb5911610104578063d547741f116100a2578063eacabe1411610071578063eacabe14146103c0578063f127394c146103d3578063f242432a146103db578063f5298aca146103ee576101d9565b8063d547741f1461038a578063e63ab1e91461039d578063e8a3d485146103a5578063e985e9c5146103ad576101d9565b8063a217fddf116100de578063a217fddf14610354578063a22cb4651461035c578063ca15c8731461036f578063d539139314610382576101d9565b80638456cb59146103195780639010d07c1461032157806391d1485414610341576101d9565b806336568abe1161017c5780635c975abb1161014b5780635c975abb146102e35780636b20c454146102eb578063731133e9146102fe5780637dd9a45714610311576101d9565b806336568abe146102955780633f4ba83a146102a85780634e1273f4146102b05780634f64b2be146102d0576101d9565b80631f7fdffa116101b85780631f7fdffa14610247578063248a9ca31461025c5780632eb2c2d61461026f5780632f2ff15d14610282576101d9565b8062fdd58e146101de57806301ffc9a7146102075780630e89341c14610227575b600080fd5b6101f16101ec3660046123d6565b610401565b6040516101fe91906127b1565b60405180910390f35b61021a61021536600461259b565b61045d565b6040516101fe91906127a6565b61023a610235366004612540565b610470565b6040516101fe91906127ba565b61025a61025536600461228b565b610512565b005b6101f161026a366004612540565b6105a9565b61025a61027d366004612114565b6105be565b61025a610290366004612558565b61061c565b61025a6102a3366004612558565b610643565b61025a610665565b6102c36102be366004612483565b6106b7565b6040516101fe9190612765565b61023a6102de366004612540565b6107d6565b61021a610870565b61025a6102f936600461221b565b61087a565b61025a61030c366004612431565b6108cf565b61023a610913565b61025a610920565b61033461032f36600461257a565b610970565b6040516101fe91906126ae565b61021a61034f366004612558565b61098f565b6101f16109b8565b61025a61036a36600461231f565b6109bd565b6101f161037d366004612540565b610a8b565b6101f1610aa2565b61025a610398366004612558565b610ab4565b6101f1610abe565b61023a610ae2565b61021a6103bb3660046120e2565b610b74565b61025a6103ce366004612359565b610ba2565b6101f1610c45565b61025a6103e93660046121b9565b610c4b565b61025a6103fc3660046123ff565b610ca2565b60006001600160a01b0383166104325760405162461bcd60e51b8152600401610429906128cc565b60405180910390fd5b5060008181526002602090815260408083206001600160a01b03861684529091529020545b92915050565b600061046882610d1a565b90505b919050565b600081815260066020526040902080546060919061048d90612f4f565b80601f01602080910402602001604051908101604052809291908181526020018280546104b990612f4f565b80156105065780601f106104db57610100808354040283529160200191610506565b820191906000526020600020905b8154815290600101906020018083116104e957829003601f168201915b50505050509050919050565b60005b83518110156105965760006006600086848151811061054457634e487b7160e01b600052603260045260246000fd5b60200260200101518152602001908152602001600020805461056590612f4f565b9050116105845760405162461bcd60e51b815260040161042990612c2f565b8061058e81612f8a565b915050610515565b506105a384848484610d5a565b50505050565b60009081526020819052604090206001015490565b6105c6610d9c565b6001600160a01b0316856001600160a01b031614806105ec57506105ec856103bb610d9c565b6106085760405162461bcd60e51b815260040161042990612a5f565b6106158585858585610da0565b5050505050565b6106268282610f74565b600082815260016020526040902061063e9082610d05565b505050565b61064d8282610f98565b600082815260016020526040902061063e9082610fda565b6106917f65d7a28e3265b37a6474929f336521b332c1681b933f6cb9f3376673440d862a61034f610d9c565b6106ad5760405162461bcd60e51b815260040161042990612bd2565b6106b5610fef565b565b606081518351146106da5760405162461bcd60e51b815260040161042990612d0c565b600083516001600160401b0381111561070357634e487b7160e01b600052604160045260246000fd5b60405190808252806020026020018201604052801561072c578160200160208202803683370190505b50905060005b84518110156107ce5761079385828151811061075e57634e487b7160e01b600052603260045260246000fd5b602002602001015185838151811061078657634e487b7160e01b600052603260045260246000fd5b6020026020010151610401565b8282815181106107b357634e487b7160e01b600052603260045260246000fd5b60209081029190910101526107c781612f8a565b9050610732565b509392505050565b600660205260009081526040902080546107ef90612f4f565b80601f016020809104026020016040519081016040528092919081815260200182805461081b90612f4f565b80156108685780601f1061083d57610100808354040283529160200191610868565b820191906000526020600020905b81548152906001019060200180831161084b57829003601f168201915b505050505081565b60055460ff165b90565b610882610d9c565b6001600160a01b0316836001600160a01b031614806108a857506108a8836103bb610d9c565b6108c45760405162461bcd60e51b8152600401610429906129a7565b61063e83838361105d565b600083815260066020526040812080546108e890612f4f565b9050116109075760405162461bcd60e51b815260040161042990612c2f565b6105a384848484611211565b600880546107ef90612f4f565b61094c7f65d7a28e3265b37a6474929f336521b332c1681b933f6cb9f3376673440d862a61034f610d9c565b6109685760405162461bcd60e51b815260040161042990612c66565b6106b5611253565b600082815260016020526040812061098890836112ae565b9392505050565b6000918252602082815260408084206001600160a01b0393909316845291905290205460ff1690565b600081565b816001600160a01b03166109cf610d9c565b6001600160a01b031614156109f65760405162461bcd60e51b815260040161042990612cc3565b8060036000610a03610d9c565b6001600160a01b03908116825260208083019390935260409182016000908120918716808252919093529120805460ff191692151592909217909155610a47610d9c565b6001600160a01b03167f17307eab39ab6107e8899845ad3d59bd9653f200f220920489ca2b5937696c3183604051610a7f91906127a6565b60405180910390a35050565b6000818152600160205260408120610468906112ba565b60008051602061309583398151915281565b61064d82826112c5565b7f65d7a28e3265b37a6474929f336521b332c1681b933f6cb9f3376673440d862a81565b606060088054610af190612f4f565b80601f0160208091040260200160405190810160405280929190818152602001828054610b1d90612f4f565b8015610b6a5780601f10610b3f57610100808354040283529160200191610b6a565b820191906000526020600020905b815481529060010190602001808311610b4d57829003601f168201915b5050505050905090565b6001600160a01b03918216600090815260036020908152604080832093909416825291909152205460ff1690565b610bbc60008051602061309583398151915261034f610d9c565b610bd85760405162461bcd60e51b815260040161042990612b9b565b80610bf55760405162461bcd60e51b815260040161042990612d9d565b60078054906000610c0583612f8a565b90915550506007546000908152600660205260409020610c26908383611f5c565b5061063e836007546001604051806020016040528060008152506112e4565b60075481565b610c53610d9c565b6001600160a01b0316856001600160a01b03161480610c795750610c79856103bb610d9c565b610c955760405162461bcd60e51b8152600401610429906129a7565b61061585858585856113d5565b610caa610d9c565b6001600160a01b0316836001600160a01b03161480610cd05750610cd0836103bb610d9c565b610cec5760405162461bcd60e51b8152600401610429906129a7565b61063e83838361150d565b610d018282611620565b5050565b6000610988836001600160a01b0384166116a5565b60006001600160e01b03198216636cdb3d1360e11b1480610d4b57506001600160e01b031982166303a24d0760e21b145b806104685750610468826116ef565b610d7460008051602061309583398151915261034f610d9c565b610d905760405162461bcd60e51b815260040161042990612af4565b6105a384848484611714565b3390565b8151835114610dc15760405162461bcd60e51b815260040161042990612d55565b6001600160a01b038416610de75760405162461bcd60e51b815260040161042990612a1a565b6000610df1610d9c565b9050610e01818787878787611896565b60005b8451811015610f06576000858281518110610e2f57634e487b7160e01b600052603260045260246000fd5b602002602001015190506000858381518110610e5b57634e487b7160e01b600052603260045260246000fd5b60209081029190910181015160008481526002835260408082206001600160a01b038e168352909352919091205490915081811015610eac5760405162461bcd60e51b815260040161042990612b51565b60008381526002602090815260408083206001600160a01b038e8116855292528083208585039055908b16825281208054849290610eeb908490612ebe565b9250508190555050505080610eff90612f8a565b9050610e04565b50846001600160a01b0316866001600160a01b0316826001600160a01b03167f4a39dc06d4c0dbc64b70af90fd698a233a518aa5d07e595d983b8c0526c8f7fb8787604051610f56929190612778565b60405180910390a4610f6c8187878787876118a4565b505050505050565b610f7d826105a9565b610f8e81610f89610d9c565b6119b2565b61063e8383611620565b610fa0610d9c565b6001600160a01b0316816001600160a01b031614610fd05760405162461bcd60e51b815260040161042990612e15565b610d018282611a16565b6000610988836001600160a01b038416611a99565b610ff7610870565b6110135760405162461bcd60e51b81526004016104299061289e565b6005805460ff191690557f5db9ee0a495bf2e6ff9c91a7834c1ba4fdd244a5e8aa4e537bd38aeae4b073aa611046610d9c565b60405161105391906126ae565b60405180910390a1565b6001600160a01b0383166110835760405162461bcd60e51b815260040161042990612ab1565b80518251146110a45760405162461bcd60e51b815260040161042990612d55565b60006110ae610d9c565b90506110ce81856000868660405180602001604052806000815250611896565b60005b83518110156111b25760008482815181106110fc57634e487b7160e01b600052603260045260246000fd5b60200260200101519050600084838151811061112857634e487b7160e01b600052603260045260246000fd5b60209081029190910181015160008481526002835260408082206001600160a01b038c1683529093529190912054909150818110156111795760405162461bcd60e51b815260040161042990612917565b60009283526002602090815260408085206001600160a01b038b16865290915290922091039055806111aa81612f8a565b9150506110d1565b5060006001600160a01b0316846001600160a01b0316826001600160a01b03167f4a39dc06d4c0dbc64b70af90fd698a233a518aa5d07e595d983b8c0526c8f7fb8686604051611203929190612778565b60405180910390a450505050565b61122b60008051602061309583398151915261034f610d9c565b6112475760405162461bcd60e51b815260040161042990612af4565b6105a3848484846112e4565b61125b610870565b156112785760405162461bcd60e51b8152600401610429906129f0565b6005805460ff191660011790557f62e78cea01bee320cd4e420270b5ea74000d11b0c9f74754ebdbfc544b05a258611046610d9c565b60006109888383611bb6565b600061046882611bee565b6112ce826105a9565b6112da81610f89610d9c565b61063e8383611a16565b6001600160a01b03841661130a5760405162461bcd60e51b815260040161042990612dd4565b6000611314610d9c565b90506113358160008761132688611bf2565b61132f88611bf2565b87611896565b60008481526002602090815260408083206001600160a01b038916845290915281208054859290611367908490612ebe565b92505081905550846001600160a01b031660006001600160a01b0316826001600160a01b03167fc3d58168c5ae7397731d063d5bbf3d657854427343f4c083240f7aacaa2d0f6287876040516113be929190612e64565b60405180910390a461061581600087878787611c4b565b6001600160a01b0384166113fb5760405162461bcd60e51b815260040161042990612a1a565b6000611405610d9c565b905061141681878761132688611bf2565b60008481526002602090815260408083206001600160a01b038a168452909152902054838110156114595760405162461bcd60e51b815260040161042990612b51565b60008581526002602090815260408083206001600160a01b038b8116855292528083208785039055908816825281208054869290611498908490612ebe565b92505081905550856001600160a01b0316876001600160a01b0316836001600160a01b03167fc3d58168c5ae7397731d063d5bbf3d657854427343f4c083240f7aacaa2d0f6288886040516114ee929190612e64565b60405180910390a4611504828888888888611c4b565b50505050505050565b6001600160a01b0383166115335760405162461bcd60e51b815260040161042990612ab1565b600061153d610d9c565b905061156d8185600061154f87611bf2565b61155887611bf2565b60405180602001604052806000815250611896565b60008381526002602090815260408083206001600160a01b0388168452909152902054828110156115b05760405162461bcd60e51b815260040161042990612917565b60008481526002602090815260408083206001600160a01b03808a16808652919093528184208786039055905190918516907fc3d58168c5ae7397731d063d5bbf3d657854427343f4c083240f7aacaa2d0f62906116119089908990612e64565b60405180910390a45050505050565b61162a828261098f565b610d01576000828152602081815260408083206001600160a01b03851684529091529020805460ff19166001179055611661610d9c565b6001600160a01b0316816001600160a01b0316837f2f8788117e7eff1d82e926ec794901d17c78024a50270940304540a733656f0d60405160405180910390a45050565b60006116b18383611d1c565b6116e757508154600181810184556000848152602080822090930184905584548482528286019093526040902091909155610457565b506000610457565b60006001600160e01b03198216635a05180f60e01b1480610468575061046882611d34565b6001600160a01b03841661173a5760405162461bcd60e51b815260040161042990612dd4565b815183511461175b5760405162461bcd60e51b815260040161042990612d55565b6000611765610d9c565b905061177681600087878787611896565b60005b845181101561182e578381815181106117a257634e487b7160e01b600052603260045260246000fd5b6020026020010151600260008784815181106117ce57634e487b7160e01b600052603260045260246000fd5b602002602001015181526020019081526020016000206000886001600160a01b03166001600160a01b0316815260200190815260200160002060008282546118169190612ebe565b9091555081905061182681612f8a565b915050611779565b50846001600160a01b031660006001600160a01b0316826001600160a01b03167f4a39dc06d4c0dbc64b70af90fd698a233a518aa5d07e595d983b8c0526c8f7fb878760405161187f929190612778565b60405180910390a4610615816000878787876118a4565b610f6c868686868686611d59565b6118b6846001600160a01b0316611d8c565b15610f6c5760405163bc197c8160e01b81526001600160a01b0385169063bc197c81906118ef90899089908890889088906004016126c2565b602060405180830381600087803b15801561190957600080fd5b505af1925050508015611939575060408051601f3d908101601f19168201909252611936918101906125b7565b60015b61198257611945612fd7565b80611950575061196a565b8060405162461bcd60e51b815260040161042991906127ba565b60405162461bcd60e51b8152600401610429906127cd565b6001600160e01b0319811663bc197c8160e01b146115045760405162461bcd60e51b815260040161042990612856565b6119bc828261098f565b610d01576119d4816001600160a01b03166014611d92565b6119df836020611d92565b6040516020016119f0929190612639565b60408051601f198184030181529082905262461bcd60e51b8252610429916004016127ba565b611a20828261098f565b15610d01576000828152602081815260408083206001600160a01b03851684529091529020805460ff19169055611a55610d9c565b6001600160a01b0316816001600160a01b0316837ff6391f5c32d9c69d2a47ea670b442974b53935d1edc7fd64eb21e047a839171b60405160405180910390a45050565b60008181526001830160205260408120548015611bac576000611abd600183612ef5565b8554909150600090611ad190600190612ef5565b9050818114611b52576000866000018281548110611aff57634e487b7160e01b600052603260045260246000fd5b9060005260206000200154905080876000018481548110611b3057634e487b7160e01b600052603260045260246000fd5b6000918252602080832090910192909255918252600188019052604090208390555b8554869080611b7157634e487b7160e01b600052603160045260246000fd5b600190038181906000526020600020016000905590558560010160008681526020019081526020016000206000905560019350505050610457565b6000915050610457565b6000826000018281548110611bdb57634e487b7160e01b600052603260045260246000fd5b9060005260206000200154905092915050565b5490565b60408051600180825281830190925260609160009190602080830190803683370190505090508281600081518110611c3a57634e487b7160e01b600052603260045260246000fd5b602090810291909101015292915050565b611c5d846001600160a01b0316611d8c565b15610f6c5760405163f23a6e6160e01b81526001600160a01b0385169063f23a6e6190611c969089908990889088908890600401612720565b602060405180830381600087803b158015611cb057600080fd5b505af1925050508015611ce0575060408051601f3d908101601f19168201909252611cdd918101906125b7565b60015b611cec57611945612fd7565b6001600160e01b0319811663f23a6e6160e01b146115045760405162461bcd60e51b815260040161042990612856565b60009081526001919091016020526040902054151590565b60006001600160e01b03198216637965db0b60e01b1480610468575061046882611f43565b611d67868686868686610f6c565b611d6f610870565b15610f6c5760405162461bcd60e51b81526004016104299061295b565b3b151590565b60606000611da1836002612ed6565b611dac906002612ebe565b6001600160401b03811115611dd157634e487b7160e01b600052604160045260246000fd5b6040519080825280601f01601f191660200182016040528015611dfb576020820181803683370190505b509050600360fc1b81600081518110611e2457634e487b7160e01b600052603260045260246000fd5b60200101906001600160f81b031916908160001a905350600f60fb1b81600181518110611e6157634e487b7160e01b600052603260045260246000fd5b60200101906001600160f81b031916908160001a9053506000611e85846002612ed6565b611e90906001612ebe565b90505b6001811115611f24576f181899199a1a9b1b9c1cb0b131b232b360811b85600f1660108110611ed257634e487b7160e01b600052603260045260246000fd5b1a60f81b828281518110611ef657634e487b7160e01b600052603260045260246000fd5b60200101906001600160f81b031916908160001a90535060049490941c93611f1d81612f38565b9050611e93565b5083156109885760405162461bcd60e51b815260040161042990612821565b6001600160e01b031981166301ffc9a760e01b14919050565b828054611f6890612f4f565b90600052602060002090601f016020900481019282611f8a5760008555611fd0565b82601f10611fa35782800160ff19823516178555611fd0565b82800160010185558215611fd0579182015b82811115611fd0578235825591602001919060010190611fb5565b50611fdc929150611fe0565b5090565b5b80821115611fdc5760008155600101611fe1565b80356001600160a01b038116811461046b57600080fd5b600082601f83011261201c578081fd5b8135602061203161202c83612e9b565b612e72565b828152818101908583018385028701840188101561204d578586fd5b855b8581101561206b5781358452928401929084019060010161204f565b5090979650505050505050565b600082601f830112612088578081fd5b81356001600160401b038111156120a1576120a1612fbb565b6120b4601f8201601f1916602001612e72565b8181528460208386010111156120c8578283fd5b816020850160208301379081016020019190915292915050565b600080604083850312156120f4578182fd5b6120fd83611ff5565b915061210b60208401611ff5565b90509250929050565b600080600080600060a0868803121561212b578081fd5b61213486611ff5565b945061214260208701611ff5565b935060408601356001600160401b038082111561215d578283fd5b61216989838a0161200c565b9450606088013591508082111561217e578283fd5b61218a89838a0161200c565b9350608088013591508082111561219f578283fd5b506121ac88828901612078565b9150509295509295909350565b600080600080600060a086880312156121d0578081fd5b6121d986611ff5565b94506121e760208701611ff5565b9350604086013592506060860135915060808601356001600160401b0381111561220f578182fd5b6121ac88828901612078565b60008060006060848603121561222f578283fd5b61223884611ff5565b925060208401356001600160401b0380821115612253578384fd5b61225f8783880161200c565b93506040860135915080821115612274578283fd5b506122818682870161200c565b9150509250925092565b600080600080608085870312156122a0578384fd5b6122a985611ff5565b935060208501356001600160401b03808211156122c4578485fd5b6122d08883890161200c565b945060408701359150808211156122e5578384fd5b6122f18883890161200c565b93506060870135915080821115612306578283fd5b5061231387828801612078565b91505092959194509250565b60008060408385031215612331578182fd5b61233a83611ff5565b91506020830135801515811461234e578182fd5b809150509250929050565b60008060006040848603121561236d578283fd5b61237684611ff5565b925060208401356001600160401b0380821115612391578384fd5b818601915086601f8301126123a4578384fd5b8135818111156123b2578485fd5b8760208285010111156123c3578485fd5b6020830194508093505050509250925092565b600080604083850312156123e8578182fd5b6123f183611ff5565b946020939093013593505050565b600080600060608486031215612413578081fd5b61241c84611ff5565b95602085013595506040909401359392505050565b60008060008060808587031215612446578182fd5b61244f85611ff5565b9350602085013592506040850135915060608501356001600160401b03811115612477578182fd5b61231387828801612078565b60008060408385031215612495578182fd5b82356001600160401b03808211156124ab578384fd5b818501915085601f8301126124be578384fd5b813560206124ce61202c83612e9b565b82815281810190858301838502870184018b10156124ea578889fd5b8896505b84871015612513576124ff81611ff5565b8352600196909601959183019183016124ee565b5096505086013592505080821115612529578283fd5b506125368582860161200c565b9150509250929050565b600060208284031215612551578081fd5b5035919050565b6000806040838503121561256a578182fd5b8235915061210b60208401611ff5565b6000806040838503121561258c578182fd5b50508035926020909101359150565b6000602082840312156125ac578081fd5b81356109888161307b565b6000602082840312156125c8578081fd5b81516109888161307b565b6000815180845260208085019450808401835b83811015612602578151875295820195908201906001016125e6565b509495945050505050565b60008151808452612625816020860160208601612f0c565b601f01601f19169290920160200192915050565b60007f416363657373436f6e74726f6c3a206163636f756e742000000000000000000082528351612671816017850160208801612f0c565b7001034b99036b4b9b9b4b733903937b6329607d1b60179184019182015283516126a2816028840160208801612f0c565b01602801949350505050565b6001600160a01b0391909116815260200190565b6001600160a01b0386811682528516602082015260a0604082018190526000906126ee908301866125d3565b828103606084015261270081866125d3565b90508281036080840152612714818561260d565b98975050505050505050565b6001600160a01b03868116825285166020820152604081018490526060810183905260a06080820181905260009061275a9083018461260d565b979650505050505050565b60006020825261098860208301846125d3565b60006040825261278b60408301856125d3565b828103602084015261279d81856125d3565b95945050505050565b901515815260200190565b90815260200190565b600060208252610988602083018461260d565b60208082526034908201527f455243313135353a207472616e7366657220746f206e6f6e20455243313135356040820152732932b1b2b4bb32b91034b6b83632b6b2b73a32b960611b606082015260800190565b6020808252818101527f537472696e67733a20686578206c656e67746820696e73756666696369656e74604082015260600190565b60208082526028908201527f455243313135353a204552433131353552656365697665722072656a656374656040820152676420746f6b656e7360c01b606082015260800190565b60208082526014908201527314185d5cd8589b194e881b9bdd081c185d5cd95960621b604082015260600190565b6020808252602b908201527f455243313135353a2062616c616e636520717565727920666f7220746865207a60408201526a65726f206164647265737360a81b606082015260800190565b60208082526024908201527f455243313135353a206275726e20616d6f756e7420657863656564732062616c604082015263616e636560e01b606082015260800190565b6020808252602c908201527f455243313135355061757361626c653a20746f6b656e207472616e736665722060408201526b1dda1a5b19481c185d5cd95960a21b606082015260800190565b60208082526029908201527f455243313135353a2063616c6c6572206973206e6f74206f776e6572206e6f7260408201526808185c1c1c9bdd995960ba1b606082015260800190565b60208082526010908201526f14185d5cd8589b194e881c185d5cd95960821b604082015260600190565b60208082526025908201527f455243313135353a207472616e7366657220746f20746865207a65726f206164604082015264647265737360d81b606082015260800190565b60208082526032908201527f455243313135353a207472616e736665722063616c6c6572206973206e6f74206040820152711bdddb995c881b9bdc88185c1c1c9bdd995960721b606082015260800190565b60208082526023908201527f455243313135353a206275726e2066726f6d20746865207a65726f206164647260408201526265737360e81b606082015260800190565b60208082526038908201527f455243313135355072657365744d696e7465725061757365723a206d7573742060408201527f68617665206d696e74657220726f6c6520746f206d696e740000000000000000606082015260800190565b6020808252602a908201527f455243313135353a20696e73756666696369656e742062616c616e636520666f60408201526939103a3930b739b332b960b11b606082015260800190565b6020808252601d908201527f4d7573742068617665206d696e74657220726f6c6520746f206d696e74000000604082015260600190565b6020808252603b908201527f455243313135355072657365744d696e7465725061757365723a206d7573742060408201527f686176652070617573657220726f6c6520746f20756e70617573650000000000606082015260800190565b60208082526019908201527f546f6b656e207479706520646f6573206e6f7420657869737400000000000000604082015260600190565b60208082526039908201527f455243313135355072657365744d696e7465725061757365723a206d7573742060408201527f686176652070617573657220726f6c6520746f20706175736500000000000000606082015260800190565b60208082526029908201527f455243313135353a2073657474696e6720617070726f76616c20737461747573604082015268103337b91039b2b63360b91b606082015260800190565b60208082526029908201527f455243313135353a206163636f756e747320616e6420696473206c656e677468604082015268040dad2e6dac2e8c6d60bb1b606082015260800190565b60208082526028908201527f455243313135353a2069647320616e6420616d6f756e7473206c656e677468206040820152670dad2e6dac2e8c6d60c31b606082015260800190565b60208082526019908201527f4d65746164617461206861736820697320726571756972656400000000000000604082015260600190565b60208082526021908201527f455243313135353a206d696e7420746f20746865207a65726f206164647265736040820152607360f81b606082015260800190565b6020808252602f908201527f416363657373436f6e74726f6c3a2063616e206f6e6c792072656e6f756e636560408201526e103937b632b9903337b91039b2b63360891b606082015260800190565b918252602082015260400190565b6040518181016001600160401b0381118282101715612e9357612e93612fbb565b604052919050565b60006001600160401b03821115612eb457612eb4612fbb565b5060209081020190565b60008219821115612ed157612ed1612fa5565b500190565b6000816000190483118215151615612ef057612ef0612fa5565b500290565b600082821015612f0757612f07612fa5565b500390565b60005b83811015612f27578181015183820152602001612f0f565b838111156105a35750506000910152565b600081612f4757612f47612fa5565b506000190190565b600281046001821680612f6357607f821691505b60208210811415612f8457634e487b7160e01b600052602260045260246000fd5b50919050565b6000600019821415612f9e57612f9e612fa5565b5060010190565b634e487b7160e01b600052601160045260246000fd5b634e487b7160e01b600052604160045260246000fd5b60e01c90565b600060443d1015612fe757610877565b600481823e6308c379a0612ffb8251612fd1565b1461300557610877565b6040513d600319016004823e80513d6001600160401b0381602484011181841117156130345750505050610877565b8284019250825191508082111561304e5750505050610877565b503d8301602082840101111561306657505050610877565b601f01601f1916810160200160405291505090565b6001600160e01b03198116811461309157600080fd5b5056fe9f2df0fed2c77648de5860a4cc508cd0818c85b8b8a1ab4ceeef8d981c8956a6a26469706673582212206930b3a831ccdfaac911191f2ecf23c0be1a696c4b5b5a8d6c73922feaaf9ef764736f6c63430008000033697066733a2f2f516d51334b6f326637774e4752697a5972516f6957704354505142527433623678594d58696d397958424c557236",
  "devdoc": {
    "kind": "dev",
    "methods": {
      "balanceOf(address,uint256)": {
        "details": "See {IERC1155-balanceOf}. Requirements: - `account` cannot be the zero address."
      },
      "balanceOfBatch(address[],uint256[])": {
        "details": "See {IERC1155-balanceOfBatch}. Requirements: - `accounts` and `ids` must have the same length."
      },
      "contractURI()": {
        "returns": {
          "_0": "string hash of the contract's metadata"
        }
      },
      "getRoleAdmin(bytes32)": {
        "details": "Returns the admin role that controls `role`. See {grantRole} and {revokeRole}. To change a role's admin, use {_setRoleAdmin}."
      },
      "getRoleMember(bytes32,uint256)": {
        "details": "Returns one of the accounts that have `role`. `index` must be a value between 0 and {getRoleMemberCount}, non-inclusive. Role bearers are not sorted in any particular way, and their ordering may change at any point. WARNING: When using {getRoleMember} and {getRoleMemberCount}, make sure you perform all queries on the same block. See the following https://forum.openzeppelin.com/t/iterating-over-elements-on-enumerableset-in-openzeppelin-contracts/2296[forum post] for more information."
      },
      "getRoleMemberCount(bytes32)": {
        "details": "Returns the number of accounts that have `role`. Can be used together with {getRoleMember} to enumerate all bearers of a role."
      },
      "grantRole(bytes32,address)": {
        "details": "Overload {grantRole} to track enumerable memberships"
      },
      "hasRole(bytes32,address)": {
        "details": "Returns `true` if `account` has been granted `role`."
      },
      "isApprovedForAll(address,address)": {
        "details": "See {IERC1155-isApprovedForAll}."
      },
      "mint(address,uint256,uint256,bytes)": {
        "params": {
          "amount": "the amount of tokens with type id to mint",
          "data": "...",
          "id": "token id for the new token",
          "to": "address of the owner for the new token"
        }
      },
      "mintBatch(address,uint256[],uint256[],bytes)": {
        "params": {
          "amounts": "array of amounts to mint tokens from the ids array",
          "data": "...",
          "ids": "array of token ids for the new or existing token/s",
          "to": "address of the owner for the new token/s"
        }
      },
      "mintNFT(address,string)": {
        "params": {
          "account": "address of the owner for the new token",
          "tokenMetadataHash": "a string hash of the metadata for the new token"
        }
      },
      "pause()": {
        "details": "Pauses all token transfers. See {ERC1155Pausable} and {Pausable-_pause}. Requirements: - the caller must have the `PAUSER_ROLE`."
      },
      "paused()": {
        "details": "Returns true if the contract is paused, and false otherwise."
      },
      "renounceRole(bytes32,address)": {
        "details": "Overload {renounceRole} to track enumerable memberships"
      },
      "revokeRole(bytes32,address)": {
        "details": "Overload {revokeRole} to track enumerable memberships"
      },
      "safeBatchTransferFrom(address,address,uint256[],uint256[],bytes)": {
        "details": "See {IERC1155-safeBatchTransferFrom}."
      },
      "safeTransferFrom(address,address,uint256,uint256,bytes)": {
        "details": "See {IERC1155-safeTransferFrom}."
      },
      "setApprovalForAll(address,bool)": {
        "details": "See {IERC1155-setApprovalForAll}."
      },
      "supportsInterface(bytes4)": {
        "details": "See {IERC165-supportsInterface}."
      },
      "unpause()": {
        "details": "Unpauses all token transfers. See {ERC1155Pausable} and {Pausable-_unpause}. Requirements: - the caller must have the `PAUSER_ROLE`."
      },
      "uri(uint256)": {
        "params": {
          "id": "token id of the token whose metadata will be returned"
        },
        "returns": {
          "_0": "string hash of the token's metadata"
        }
      }
    },
    "title": "The main wine trust token contract which extends the ERC1155 minter pauser preset ",
    "version": 1
  },
  "userdoc": {
    "kind": "user",
    "methods": {
      "constructor": {
        "notice": "Initialises the contract and sets token id count to 0"
      },
      "contractLevelURI()": {
        "notice": "Variable to store the contract level metadata uri"
      },
      "contractURI()": {
        "notice": "Function to return the contract level metadata uri as defined in the opensea docs: https://docs.opensea.io/docs/contract-level-metadata"
      },
      "mint(address,uint256,uint256,bytes)": {
        "notice": "Override the existing ERC1155 minter pauser preset mint function to make sure that a metadata hash for the token id exists in the tokens mapping (make sure this token id has been minted using mintToken before adding to it's balance)"
      },
      "mintBatch(address,uint256[],uint256[],bytes)": {
        "notice": "Override the existing ERC1155 minter pauser preset mintBatch function to make sure that a metadata hash for the all the token ids exists in the tokens mapping (make sure these token ids have been minted using mintToken before adding to their balance)"
      },
      "mintNFT(address,string)": {
        "notice": "Mint a wine trust token storing the hash of it's metadata in the tokens mapping"
      },
      "tokenIdCount()": {
        "notice": "Variable to store the token id count"
      },
      "tokens(uint256)": {
        "notice": "Mapping of token ids to token metadata hashes"
      },
      "uri(uint256)": {
        "notice": "Override the existing ERC1155 uri function to return to return a token's metadata hash string from the tokens mapping."
      }
    },
    "version": 1
  },
  "storageLayout": {
    "storage": [
      {
        "astId": 24,
        "contract": "contracts/implementations/WineTrustToken.sol:WineTrustToken",
        "label": "_roles",
        "offset": 0,
        "slot": "0",
        "type": "t_mapping(t_bytes32,t_struct(RoleData)19_storage)"
      },
      {
        "astId": 325,
        "contract": "contracts/implementations/WineTrustToken.sol:WineTrustToken",
        "label": "_roleMembers",
        "offset": 0,
        "slot": "1",
        "type": "t_mapping(t_bytes32,t_struct(AddressSet)3119_storage)"
      },
      {
        "astId": 701,
        "contract": "contracts/implementations/WineTrustToken.sol:WineTrustToken",
        "label": "_balances",
        "offset": 0,
        "slot": "2",
        "type": "t_mapping(t_uint256,t_mapping(t_address,t_uint256))"
      },
      {
        "astId": 707,
        "contract": "contracts/implementations/WineTrustToken.sol:WineTrustToken",
        "label": "_operatorApprovals",
        "offset": 0,
        "slot": "3",
        "type": "t_mapping(t_address,t_mapping(t_address,t_bool))"
      },
      {
        "astId": 709,
        "contract": "contracts/implementations/WineTrustToken.sol:WineTrustToken",
        "label": "_uri",
        "offset": 0,
        "slot": "4",
        "type": "t_string_storage"
      },
      {
        "astId": 601,
        "contract": "contracts/implementations/WineTrustToken.sol:WineTrustToken",
        "label": "_paused",
        "offset": 0,
        "slot": "5",
        "type": "t_bool"
      },
      {
        "astId": 3420,
        "contract": "contracts/implementations/WineTrustToken.sol:WineTrustToken",
        "label": "tokens",
        "offset": 0,
        "slot": "6",
        "type": "t_mapping(t_uint256,t_string_storage)"
      },
      {
        "astId": 3423,
        "contract": "contracts/implementations/WineTrustToken.sol:WineTrustToken",
        "label": "tokenIdCount",
        "offset": 0,
        "slot": "7",
        "type": "t_uint256"
      },
      {
        "astId": 3426,
        "contract": "contracts/implementations/WineTrustToken.sol:WineTrustToken",
        "label": "contractLevelURI",
        "offset": 0,
        "slot": "8",
        "type": "t_string_storage"
      }
    ],
    "types": {
      "t_address": {
        "encoding": "inplace",
        "label": "address",
        "numberOfBytes": "20"
      },
      "t_array(t_bytes32)dyn_storage": {
        "base": "t_bytes32",
        "encoding": "dynamic_array",
        "label": "bytes32[]",
        "numberOfBytes": "32"
      },
      "t_bool": {
        "encoding": "inplace",
        "label": "bool",
        "numberOfBytes": "1"
      },
      "t_bytes32": {
        "encoding": "inplace",
        "label": "bytes32",
        "numberOfBytes": "32"
      },
      "t_mapping(t_address,t_bool)": {
        "encoding": "mapping",
        "key": "t_address",
        "label": "mapping(address => bool)",
        "numberOfBytes": "32",
        "value": "t_bool"
      },
      "t_mapping(t_address,t_mapping(t_address,t_bool))": {
        "encoding": "mapping",
        "key": "t_address",
        "label": "mapping(address => mapping(address => bool))",
        "numberOfBytes": "32",
        "value": "t_mapping(t_address,t_bool)"
      },
      "t_mapping(t_address,t_uint256)": {
        "encoding": "mapping",
        "key": "t_address",
        "label": "mapping(address => uint256)",
        "numberOfBytes": "32",
        "value": "t_uint256"
      },
      "t_mapping(t_bytes32,t_struct(AddressSet)3119_storage)": {
        "encoding": "mapping",
        "key": "t_bytes32",
        "label": "mapping(bytes32 => struct EnumerableSet.AddressSet)",
        "numberOfBytes": "32",
        "value": "t_struct(AddressSet)3119_storage"
      },
      "t_mapping(t_bytes32,t_struct(RoleData)19_storage)": {
        "encoding": "mapping",
        "key": "t_bytes32",
        "label": "mapping(bytes32 => struct AccessControl.RoleData)",
        "numberOfBytes": "32",
        "value": "t_struct(RoleData)19_storage"
      },
      "t_mapping(t_bytes32,t_uint256)": {
        "encoding": "mapping",
        "key": "t_bytes32",
        "label": "mapping(bytes32 => uint256)",
        "numberOfBytes": "32",
        "value": "t_uint256"
      },
      "t_mapping(t_uint256,t_mapping(t_address,t_uint256))": {
        "encoding": "mapping",
        "key": "t_uint256",
        "label": "mapping(uint256 => mapping(address => uint256))",
        "numberOfBytes": "32",
        "value": "t_mapping(t_address,t_uint256)"
      },
      "t_mapping(t_uint256,t_string_storage)": {
        "encoding": "mapping",
        "key": "t_uint256",
        "label": "mapping(uint256 => string)",
        "numberOfBytes": "32",
        "value": "t_string_storage"
      },
      "t_string_storage": {
        "encoding": "bytes",
        "label": "string",
        "numberOfBytes": "32"
      },
      "t_struct(AddressSet)3119_storage": {
        "encoding": "inplace",
        "label": "struct EnumerableSet.AddressSet",
        "members": [
          {
            "astId": 3118,
            "contract": "contracts/implementations/WineTrustToken.sol:WineTrustToken",
            "label": "_inner",
            "offset": 0,
            "slot": "0",
            "type": "t_struct(Set)2818_storage"
          }
        ],
        "numberOfBytes": "64"
      },
      "t_struct(RoleData)19_storage": {
        "encoding": "inplace",
        "label": "struct AccessControl.RoleData",
        "members": [
          {
            "astId": 16,
            "contract": "contracts/implementations/WineTrustToken.sol:WineTrustToken",
            "label": "members",
            "offset": 0,
            "slot": "0",
            "type": "t_mapping(t_address,t_bool)"
          },
          {
            "astId": 18,
            "contract": "contracts/implementations/WineTrustToken.sol:WineTrustToken",
            "label": "adminRole",
            "offset": 0,
            "slot": "1",
            "type": "t_bytes32"
          }
        ],
        "numberOfBytes": "64"
      },
      "t_struct(Set)2818_storage": {
        "encoding": "inplace",
        "label": "struct EnumerableSet.Set",
        "members": [
          {
            "astId": 2813,
            "contract": "contracts/implementations/WineTrustToken.sol:WineTrustToken",
            "label": "_values",
            "offset": 0,
            "slot": "0",
            "type": "t_array(t_bytes32)dyn_storage"
          },
          {
            "astId": 2817,
            "contract": "contracts/implementations/WineTrustToken.sol:WineTrustToken",
            "label": "_indexes",
            "offset": 0,
            "slot": "1",
            "type": "t_mapping(t_bytes32,t_uint256)"
          }
        ],
        "numberOfBytes": "64"
      },
      "t_uint256": {
        "encoding": "inplace",
        "label": "uint256",
        "numberOfBytes": "32"
      }
    }
  }
}